S00C00006D6172742E7372656364
S113000045C0000060C000005EC000005CC000008D
S11300105AC0000058C0000056C0000054C0000080
S113002052C0000050C000004EC000004CC0000090
S11300304AC0000048C0000046C0000044C00000A0
S1130040BFC0000040C000003EC000003CC0000033
S11300503AC0000038C0000036C0000034C00000C0
S113006032C0000030C000002EC000002CC00000D0
S11300702AC0000028C0000026C0000024C00000E0
S113008022C0000020C000001EC0000011241FBEBA
S1130090CFEFD0E1DEBFCDBF11E0A0E0B1E0E8E9F1
S11300A0F2E000E00BBF02C007900D92A032B1074E
S11300B0D9F721E0A0E2B1E001C01D92A232B2075B
S11300C0E1F7DFD0E7C09CCF8FEF84BB85BB0895F9
S11300D0982F907F95BBAA9AAA9820E1829FC0018D
S11300E0112485BBAA9AAA9880E49FE10197F1F7AD
S11300F00895982F907F916095BBAA9AAA9820E1C1
S1130100829FC0011124816085BBAA9AAA9880E4C9
S11301109FE10197F1F70895662319F0613021F00A
S113012008958058D5CF08958054D2CF08950F9361
S11301301F93CF93DF93042F152FEEDFC02FD12F02
S11301408991D7DF88818111FBCFDF91CF911F91F6
S11301500F910895B9DF80ED97E020E931E0F901CE
S11301603197F1F70197D9F780E699E00197F1F714
S113017088E2AEDF80ED97E020E931E0F9013197C4
S1130180F1F70197D9F788E2A3DF80ED97E020E942
S113019031E0F9013197F1F70197D9F78CE098DF55
S11301A086E096DF82E094DF81E092DF81E090CF09
S11301B0089581E08DDF80E49CE90197F1F70895CB
S11301C01F920F920FB60F9211248F939F938091D9
S11301D020019091210101969093210180932001A7
S11301E09F918F910F900FBE0F901F9018958FEFD6
S11301F08ABB8FE081BB81E080936100ABDFD9DFF4
S113020040E051E060E080E092DF40E151E061E0F5
S113021080E08DDF1BBA88E893E120E931E0F90141
S11302203197F1F70197D9F7C4DF80EE8BBB88E8EB
S113023093E120E931E0F9013197F1F70197D9F71A
S113024040E051E060E080E072DF40E151E061E0D5
S113025080E06DDF1BBA88E893E120E931E0F90121
S11302603197F1F70197D9F7A4DF80EE8BBB88E8CB
S113027093E120E931E0F9013197F1F70197D9F7DA
S1130280089586E082BF81E087BF84E083BF7894CD
S10B0290AEDFFFCFF894FFCFAD
S1130298202020204D41524B45542020202020006E
S11302A82020202053595354454D2020202020003D
S9030000FC
