:1000000045C0000061C000005FC000005DC000008E
:100010005BC0000059C0000057C0000055C0000080
:1000200053C0000051C000004FC000004DC0000090
:100030004BC0000049C0000047C0000045C00000A0
:1000400053C1000041C000003FC000003DC000009F
:100050003BC0000039C0000037C0000035C00000C0
:1000600033C0000031C000002FC000002DC00000D0
:100070002BC0000029C0000027C0000025C00000E0
:1000800023C0000021C000001FC0000011241FBEBB
:10009000CFEFD0E1DEBFCDBF11E0A0E0B1E0EEE8F0
:1000A000F1E100E00BBF02C007900D92AC3CB1073C
:1000B000D9F721E0ACECB1E001C01D92A43FB2073A
:1000C000E1F71DD30C94C5089BCF8FEF84BB85BB94
:1000D0000895982F907F95BBAA9AAA9820E1829FB5
:1000E000C001112485BBAA9AAA9880E49FE10197D8
:1000F000F1F70895982F907F916095BBAA9AAA98DE
:1001000020E1829FC0011124816085BBAA9AAA9830
:1001100080E49FE10197F1F70895662319F06130BB
:1001200021F008958058D5CF08958054D2CF0895F6
:100130000F931F93CF93DF93042F152FEEDFC02F64
:10014000D12F8991D7DF88818111FBCFDF91CF91AA
:100150001F910F910895B9DF80ED97E020E931E01C
:10016000F9013197F1F70197D9F780E699E0019706
:10017000F1F788E2AEDF80ED97E020E931E0F901A8
:100180003197F1F70197D9F788E2A3DF80ED97E087
:1001900020E931E0F9013197F1F70197D9F78CE0C7
:1001A00098DF86E096DF82E094DF81E092DF81E0F5
:1001B00090CF089581E08DDF80E49CE90197F1F70D
:1001C00008958EEF82BB8AE18A95F1F780B390E0C3
:1001D00080959095807F99270097C9F421E030E0C1
:1001E00061E070E04AE1CB01022E02C0880F991F46
:1001F0000A94E2F7809582BB842F8A95F1F780B349
:1002000090E080959095807F9927009799F022B390
:100210002F70AC01422B9A018091F2019091F30171
:100220002817390799F03093F3012093F201822FB8
:10023000932F08952F5F3F4F24303105A1F6109280
:10024000F3011092F20180E090E0089580E090E0E8
:1002500008958FEF8ABB9FE091BB91E0909361007E
:1002600082BB79DFA7DF43E051E060E080E060DF40
:1002700043E151E061E080E05BDF1BBA88E893E195
:1002800020E931E0F9013197F1F70197D9F792DFD1
:1002900080EE8BBB88E893E120E931E0F9013197EA
:1002A000F1F70197D9F743E051E060E080E040DFEB
:1002B00043E151E061E080E03BDF1BBA88E893E175
:1002C00020E931E0F9013197F1F70197D9F772DFB1
:1002D00080EE8BBB88E893E120E931E0F9013197AA
:1002E000F1F70197D9F708951F920F920FB60F9269
:1002F00011242F933F938F939F938091F0019091BE
:10030000F10101969093F1018093F0018091010138
:10031000909102018831910588F01092F1011092BC
:10032000F0011092ED011092EC011092EF01109289
:10033000EE01109202011092010123C02091EE0102
:100340003091EF012C33310548F001969093020172
:10035000809301011092EF011092EE018091EC0167
:100360009091ED01CC9768F08091EE019091EF01B2
:1003700001969093EF018093EE011092ED0110929F
:10038000EC018091F0019091F101883E934068F07A
:100390008091EC019091ED0101969093ED01809395
:1003A000EC011092F1011092F0019F918F913F9119
:1003B0002F910F900FBE0F901F9018950F931F93C2
:1003C0008E31910539F54091E4015091E50160913C
:1003D000E6017091E701440F551F661F771F8A01E0
:1003E0009B01000F111F221F331F000F111F221F1F
:1003F000331F400F511F621F731F4F5F5F4F6F4FBF
:100400007F4F4093E4015093E5016093E6017093C0
:10041000E70154C08E32910539F54091E4015091C5
:10042000E5016091E6017091E701440F551F661FD9
:10043000771F8A019B01000F111F221F331F000F1E
:10044000111F221F331F400F511F621F731F4E5F6A
:100450005F4F6F4F7F4F4093E4015093E5016093EE
:10046000E6017093E70154C08E34910539F540914F
:10047000E4015091E5016091E6017091E701440FBC
:10048000551F661F771F8A019B01000F111F221F36
:10049000331F000F111F221F331F400F511F621FF8
:1004A000731F4D5F5F4F6F4F7F4F4093E401509339
:1004B000E5016093E6017093E70154C08D31910529
:1004C00039F54091E4015091E5016091E6017091A8
:1004D000E701440F551F661F771F8A019B01000F1C
:1004E000111F221F331F000F111F221F331F400F28
:1004F000511F621F731F4C5F5F4F6F4F7F4F4093C1
:10050000E4015093E5016093E6017093E70154C064
:100510008D32910539F54091E4015091E5016091EA
:10052000E6017091E701440F551F661F771F8A018E
:100530009B01000F111F221F331F000F111F221FCD
:10054000331F400F511F621F731F4B5F5F4F6F4F71
:100550007F4F4093E4015093E5016093E60170936F
:10056000E70154C08D34910539F54091E401509173
:10057000E5016091E6017091E701440F551F661F88
:10058000771F8A019B01000F111F221F331F000FCD
:10059000111F221F331F400F511F621F731F4A5F1D
:1005A0005F4F6F4F7F4F4093E4015093E50160939D
:1005B000E6017093E70153C08B31910539F5409105
:1005C000E4015091E5016091E6017091E701440F6B
:1005D000551F661F771F8A019B01000F111F221FE5
:1005E000331F000F111F221F331F400F511F621FA7
:1005F000731F495F5F4F6F4F7F4F4093E4015093EC
:10060000E5016093E6017093E70152C08B329105DA
:1006100031F58091E4019091E501A091E601B0915E
:10062000E701880F991FAA1FBB1FAC01BD01440F32
:10063000551F661F771F440F551F661F771F840FB6
:10064000951FA61FB71F0896A11DB11D8093E40139
:100650009093E501A093E601B093E7014DC08B3480
:10066000910531F58091E4019091E501A091E601B9
:10067000B091E701880F991FAA1FBB1FAC01BD01F4
:10068000440F551F661F771F440F551F661F771FA6
:10069000840F951FA61FB71F0996A11DB11D80933A
:1006A000E4019093E501A093E601B093E70124C033
:1006B000479711F58091E4019091E501A091E60141
:1006C000B091E701880F991FAA1FBB1FAC01BD01A4
:1006D000440F551F661F771F440F551F661F771F56
:1006E000840F951FA61FB71F8093E4019093E50127
:1006F000A093E601B093E7011F910F910895CF9366
:10070000DF931F92CDB7DEB786E082BF81E087BF5F
:1007100084E083BF78949DDD0F2EF4E3CF2EF1E0CB
:10072000DF2EF02D22242394312C8CEC91E0F82E36
:1007300099836894442441F8512C0F2EFFE86F2EC2
:10074000F1E07F2EF02D0F2EF7E98F2EF1E09F2E96
:10075000F02D0F2EF0E9AF2EBB24B394F02D809135
:10076000EA019091EB01009799F52BDD8B3891050B
:1007700031F43092EB012092EA011CDDF0CF43E22C
:1007800051E060E080E0D4DC8091ED018F938091B6
:10079000EC018F938091EF018F938091EE018F9305
:1007A000809102018F93809101018F93DF92CF920C
:1007B0008CEC91E09F938F930DD24F2D598161E086
:1007C00080E0B6DC0FB6F894DEBF0FBECDBFCDCF54
:1007D00081309105F9F4F5DC8E31910531F45092B8
:1007E000EB014092EA01E6DCBACF8E9741F484E057
:1007F00090E09093EB018093EA01DCDCB0CF4BE416
:1008000051E060E080E094DC4CE551E061E080E0A4
:100810008FDCE1CF8230910509F007C1EE24E3942B
:10082000D0DC8C014DE651E060E080E081DCC80165
:10083000C5DD0E38110581F58091E4019091E50147
:10084000A091E601B091E70181342DE0920723E009
:10085000A207B1051CF0E092E9016EC04091E001F1
:100860005091E1016091E2017091E301840F951FC5
:10087000A61FB71F8093E0019093E101A093E201CE
:10088000B093E3011092E4011092E5011092E601A9
:100890001092E7018FDC50C00D381105C9F5809129
:1008A000E0019091E101A091E201B091E301813476
:1008B0002DE0920723E0A207B1051CF0E092E901C8
:1008C0003BC04091E4015091E5016091E6017091D7
:1008D000E701840F951FA61FB71F8093E001909337
:1008E000E101A093E201B093E3011092E4011092C0
:1008F000E5011092E6011092E7015CDCE092E8016C
:10090000109200018091E901882309F470C019C098
:100910008091E801882381F00734110569F483E0B0
:1009200090E09093EB018093EA0144DC81E08093B6
:1009300000011092E80113CF8091E901882309F4A6
:1009400039C003E010E081E1EEE7F1E0ACECB1E0AA
:1009500001900D928A95E1F74CEC51E061E080E066
:10096000E7DB88EE93E0F5013197F1F70197D9F7CE
:1009700021DC88EE93E0F5013197F1F70197D9F783
:100980000150110901F71092E4011092E501109253
:10099000E6011092E7011092E0011092E10110923D
:1009A000E2011092E3011092E9011092EB01109222
:1009B000EA01D5CE809100018823C9F08091E7013A
:1009C0008F938091E6018F938091E5018F938091C1
:1009D000E4018F937F926F928CEC91E09F938F93C1
:1009E000F9D00FB6F894DEBF0FBECDBF18C080910E
:1009F000E3018F938091E2018F938091E1018F93C6
:100A00008091E0018F939F928F928CEC91E09F9365
:100A10008F93E0D00FB6F894DEBF0FBECDBF4F2D41
:100A200059816E2D80E084DBFBCE8330910509F087
:100A3000A3C0DD24D3940F2EFFE8EF2EF1E0FF2EAC
:100A4000F02DBFDB8C0141EA51E060E080E070DB1B
:100A5000C801B4DC0D38110509F0B6C00091E00101
:100A60001091E1012091E2013091E3018091E401D4
:100A70009091E501A091E601B091E70180179107FF
:100A8000A207B3071CF4D092E9012AC04091DC010F
:100A90005091DD016091DE017091DF01480F591F17
:100AA0006A1F7B1F4093DC015093DD016093DE01E0
:100AB0007093DF01801B910BA20BB30B8093E401B9
:100AC0009093E501A093E601B093E7011092E00155
:100AD0001092E1011092E2011092E3016BDB74C00D
:100AE00003E010E081E1EEE7F1E0ACECB1E0019071
:100AF0000D928A95E1F74CEC51E06D2D80E018DB0A
:100B000088EE93E0E0E9F1E03197F1F70197D1F752
:100B100051DB88EE93E0E0E9F1E03197F1F70197DE
:100B2000D1F701501109F1F61092E4011092E5019C
:100B30001092E6011092E7011092E9018091E7011D
:100B40008F938091E6018F938091E5018F9380913F
:100B5000E4018F93FF92EF928CEC91E09F938F933F
:100B600039D04CEC51E06D2D80E0E2DA0FB6F8940C
:100B7000DEBF0FBECDBF65CF049709F0F0CD03EC0B
:100B800011E042EB51E060E080E0D2DA8091DF01D9
:100B90008F938091DE018F938091DD018F938091FF
:100BA000DC018F931F930F938CEC91E09F938F93B5
:100BB00011D04CEC51E061E080E0BADA0FB6F89465
:100BC000DEBF0FBECDBFDDCF8091E901882309F4E0
:100BD000B5CF86CF0F931F93CF93DF93CDB7DEB7FB
:100BE0002E970FB6F894DEBF0FBECDBF0D891E89BC
:100BF00086E08C831A8309838FEF9FE79E838D8322
:100C0000AE01475E5F4F6F89788DCE01019610D09F
:100C1000EF81F885E00FF11F10822E960FB6F89441
:100C2000DEBF0FBECDBFDF91CF911F910F91089511
:100C30002F923F924F925F926F927F928F929F92EC
:100C4000AF92BF92CF92DF92EF92FF920F931F93DA
:100C5000CF93DF93CDB7DEB72B970FB6F894DEBFF7
:100C60000FBECDBF6C017B018A01FC011782168289
:100C7000838181FFBFC1CE0101963C01F6019381C2
:100C8000F70193FD859193FF81917F01882309F4FA
:100C9000ADC1853239F493FD859193FF81917F0138
:100CA000853221F4B60190E0D6D1E8CF912C212CE9
:100CB000312CFFE1F315D8F08B3279F038F4803223
:100CC00079F08332A1F4232D20611DC08D3261F0B3
:100CD000803369F4232D216016C0832D8260382E65
:100CE000E32DE4603E2E2AC0F32DF8601DC037FCD2
:100CF0002DC020ED280F2A3040F08E32B9F436FC9A
:100D000075C1232D2064322E19C036FE06C08AE03C
:100D1000989E200D1124922E11C0EAE02E9E200DE7
:100D20001124222EF32DF0623F2E08C08C3621F4C0
:100D3000832D8068382E02C0883641F4F70193FD78
:100D4000859193FF81917F018111B3CF982F9F7D72
:100D50009554933028F40C5F1F4F9FE399830DC087
:100D6000833631F0833771F0833509F055C020C0E8
:100D7000F801808189830E5F1F4F88248394912C12
:100D8000530112C02801F2E04F0E511CF801A0805F
:100D9000B18036FE03C0692D70E002C06FEF7FEFB7
:100DA000C5014ED14C018201F32DFF773F2E15C0B6
:100DB000280122E0420E511CF801A080B18036FECD
:100DC00003C0692D70E002C06FEF7FEFC5012DD128
:100DD0004C01F32DF0683F2E820133FC19C0822DA7
:100DE00090E088169906A0F4B60180E290E033D135
:100DF0002A94F5CFF50137FC859137FE81915F018B
:100E0000B60190E028D121102A9421E0821A91089D
:100E10008114910479F7E1C0843611F0893639F5EF
:100E2000F80137FE07C060817181828193810C5F78
:100E30001F4F08C060817181072E000C880B990B31
:100E40000E5F1F4FF32DFF763F2E97FF09C0909541
:100E50008095709561957F4F8F4F9F4FF0683F2E23
:100E60002AE030E0A30133D1882E861844C08537AC
:100E700031F4232D2F7EB22E2AE030E025C0932DB1
:100E8000997FB92E8F36C1F018F4883579F0AEC04D
:100E9000803719F0883721F0A9C0E92FE061BE2E14
:100EA000B4FE0DC0FB2DF460BF2E09C034FE0AC095
:100EB000292F2660B22E06C028E030E005C020E1D0
:100EC00030E002C020E132E0F801B7FE07C06081E7
:100ED0007181828193810C5F1F4F06C06081718197
:100EE00080E090E00E5F1F4FA301F1D0882E86189E
:100EF000FB2DFF773F2E36FE0DC0232D2E7FA22E19
:100F0000891458F434FE0BC032FC09C0832D8E7E48
:100F1000A82E05C0B82CA32C03C0B82C01C0B92C36
:100F2000A4FE0FC0FE01E80DF11D8081803321F485
:100F30009A2D997EA92E09C0A2FE06C0B394B3943F
:100F400004C08A2D867809F0B394A3FC10C0A0FEDB
:100F500006C0B21480F4280C922C9B180DC0B21459
:100F600058F4B60180E290E076D0B394F8CFB21492
:100F700018F42B1802C0982C212CA4FE0FC0B60127
:100F800080E390E068D0A2FE16C0A1FC03C088E711
:100F900090E002C088E590E0B6010CC08A2D86780A
:100FA00051F0A1FE02C08BE201C080E2A7FC8DE2FD
:100FB000B60190E050D0891430F4B60180E390E09F
:100FC0004AD09A94F8CF8A94F301E80DF11D8081FC
:100FD000B60190E040D08110F6CF222009F44ECE29
:100FE000B60180E290E037D02A94F7CFF6018681EF
:100FF000978102C08FEF9FEF2B960FB6F894DEBF5C
:101000000FBECDBFDF91CF911F910F91FF90EF9059
:10101000DF90CF90BF90AF909F908F907F906F9018
:101020005F904F903F902F900895FC010590615084
:1010300070400110D8F7809590958E0F9F1F0895EE
:10104000FC016150704001900110D8F78095909597
:101050008E0F9F1F08950F931F93CF93DF93FB0174
:10106000238121FD03C08FEF9FEF2CC022FF16C00C
:1010700046815781248135814217530744F4A0816A
:10108000B1819D012F5F3F4F318320838C93268157
:1010900037812F5F3F4F3783268314C08B01EC01CC
:1010A000FB010084F185E02D0995892BE1F6D8013B
:1010B00016968D919C911797019617969C938E93F7
:1010C0001697CE01DF91CF911F910F910895FA01EC
:1010D000AA27283051F1203181F1E8946F936E7F77
:1010E0006E5F7F4F8F4F9F4FAF4FB1E03ED0B4E068
:1010F0003CD0670F781F891F9A1FA11D680F791FA9
:101100008A1F911DA11D6A0F711D811D911DA11DB9
:1011100020D009F468943F912AE0269F11243019C9
:10112000305D3193DEF6CF010895462F4770405D64
:101130004193B3E00FD0C9F7F6CF462F4F70405D13
:101140004A3318F0495D31FD4052419302D0A9F76E
:10115000EACFB4E0A6959795879577956795BA9568
:10116000C9F700976105710508959B01AC010A2E2E
:1011700006945795479537952795BA95C9F7620F05
:0E118000731F841F951FA01D0895F894FFCFC4
:10118E00010800202020204D41524B4554202020A4
:10119E002020002020202053595354454D2020203C
:1011AE002020002020202057454C434F4D45212123
:1011BE002020200020202020253032643A25303295
:1011CE00643A253032642020202000313A204361D9
:1011DE006C63756C6174696F6E202000323A205416
:1011EE006F74616C2053616C657320200043616CD9
:1011FE0063756C617465204D6F646520200020203E
:10120E002020204552524F52212020202020002005
:10121E00202020256C64003D20256C6420776F6EA5
:10122E00004368616E676573204D6F6465202020F2
:10123E002000546F74616C2053616C657320202004
:0C124E002020003D20256C64776F6E00AE
:00000001FF
