:1000000045C0000061C000005FC000005DC000008E
:100010005BC0000059C0000057C0000055C0000080
:1000200053C0000051C000004FC000004DC0000090
:100030004BC0000049C0000047C0000045C00000A0
:1000400052C1000041C000003FC000003DC00000A0
:100050003BC0000039C0000037C0000035C00000C0
:1000600033C0000031C000002FC000002DC00000D0
:100070002BC0000029C0000027C0000025C00000E0
:1000800023C0000021C000001FC0000011241FBEBB
:10009000CFEFD0E1DEBFCDBF11E0A0E0B1E0EAE3F9
:1000A000F2E100E00BBF02C007900D92A43CB10743
:1000B000D9F721E0A4ECB1E001C01D92AC3EB2073B
:1000C000E1F739D30C941B099BCF8FEF84BB85BB21
:1000D0000895982F907F95BBAA9AAA9820E1829FB5
:1000E000C001112485BBAA9AAA9880E49FE10197D8
:1000F000F1F70895982F907F916095BBAA9AAA98DE
:1001000020E1829FC0011124816085BBAA9AAA9830
:1001100080E49FE10197F1F70895662319F06130BB
:1001200021F008958058D5CF08958054D2CF0895F6
:100130000F931F93CF93DF93042F152FEEDFC02F64
:10014000D12F8991D7DF88818111FBCFDF91CF91AA
:100150001F910F910895B9DF80ED97E020E931E01C
:10016000F9013197F1F70197D9F780E699E0019706
:10017000F1F788E2AEDF80ED97E020E931E0F901A8
:100180003197F1F70197D9F788E2A3DF80ED97E087
:1001900020E931E0F9013197F1F70197D9F78CE0C7
:1001A00098DF86E096DF82E094DF81E092DF81E0F5
:1001B00090CF089581E08DDF80E49CE90197F1F70D
:1001C00008958EEF82BB8AE18A95F1F780B390E0C3
:1001D00080959095807F99270097C9F421E030E0C1
:1001E00061E070E04AE1CB01022E02C0880F991F46
:1001F0000A94E2F7809582BB842F8A95F1F780B349
:1002000090E080959095807F9927009799F022B390
:100210002F70AC01422B9A018091EA019091EB0181
:100220002817390799F03093EB012093EA01822FC8
:10023000932F08952F5F3F4F24303105A1F6109280
:10024000EB011092EA0180E090E0089580E090E0F8
:1002500008958FEF8ABB9FE091BB1092610082BB33
:100260007ADFA8DF43E051E060E080E061DF43E156
:1002700051E061E080E05CDF1BBA88E893E120E9AF
:1002800031E0F9013197F1F70197D9F793DF80EE6B
:100290008BBB88E893E120E931E0F9013197F1F770
:1002A0000197D9F743E051E060E080E041DF43E1AE
:1002B00051E061E080E03CDF1BBA88E893E120E98F
:1002C00031E0F9013197F1F70197D9F773DF80EE4B
:1002D0008BBB88E893E120E931E0F9013197F1F730
:1002E0000197D9F708951F920F920FB60F9211241C
:1002F0002F933F938F939F938091E8019091E90111
:1003000001969093E9018093E8018091DD018823B3
:1003100049F08091E2019091E30101969093E3010D
:100320008093E20180910101909102018831910551
:1003300088F01092E9011092E8011092E501109204
:10034000E4011092E7011092E6011092020110926E
:10035000010123C02091E6013091E7012C333105E2
:1003600048F0019690930201809301011092E701F9
:100370001092E6018091E4019091E501CC9768F03C
:100380008091E6019091E70101969093E7018093B7
:10039000E6011092E5011092E4018091E80190914C
:1003A000E901883E934068F08091E4019091E50175
:1003B00001969093E5018093E4011092E901109277
:1003C000E8018091E2019091E3018838934148F07F
:1003D00081E08093DC011092DD011092E301109224
:1003E000E2019F918F913F912F910F900FBE0F903F
:1003F0001F9018950F931F938E31910539F54091F9
:10040000D8015091D9016091DA017091DB01440F5C
:10041000551F661F771F8A019B01000F111F221FA6
:10042000331F000F111F221F331F400F511F621F68
:10043000731F4F5F5F4F6F4F7F4F4093D8015093B3
:10044000D9016093DA017093DB0154C08E329105BB
:1004500039F54091D8015091D9016091DA0170913C
:10046000DB01440F551F661F771F8A019B01000F98
:10047000111F221F331F000F111F221F331F400F98
:10048000511F621F731F4E5F5F4F6F4F7F4F40932F
:10049000D8015093D9016093DA017093DB0154C005
:1004A0008E34910539F54091D8015091D901609170
:1004B000DA017091DB01440F551F661F771F8A0117
:1004C0009B01000F111F221F331F000F111F221F3E
:1004D000331F400F511F621F731F4D5F5F4F6F4FE0
:1004E0007F4F4093D8015093D9016093DA01709304
:1004F000DB0154C08D31910539F54091D8015091FF
:10050000D9016091DA017091DB01440F551F661F1C
:10051000771F8A019B01000F111F221F331F000F3D
:10052000111F221F331F400F511F621F731F4C5F8B
:100530005F4F6F4F7F4F4093D8015093D901609325
:10054000DA017093DB0154C08D32910539F5409189
:10055000D8015091D9016091DA017091DB01440F0B
:10056000551F661F771F8A019B01000F111F221F55
:10057000331F000F111F221F331F400F511F621F17
:10058000731F4B5F5F4F6F4F7F4F4093D801509366
:10059000D9016093DA017093DB0154C08D34910569
:1005A00039F54091D8015091D9016091DA017091EB
:1005B000DB01440F551F661F771F8A019B01000F47
:1005C000111F221F331F000F111F221F331F400F47
:1005D000511F621F731F4A5F5F4F6F4F7F4F4093E2
:1005E000D8015093D9016093DA017093DB0153C0B5
:1005F0008B31910539F54091D8015091D901609125
:10060000DA017091DB01440F551F661F771F8A01C5
:100610009B01000F111F221F331F000F111F221FEC
:10062000331F400F511F621F731F495F5F4F6F4F92
:100630007F4F4093D8015093D9016093DA017093B2
:10064000DB0152C08B32910531F58091D801909138
:10065000D901A091DA01B091DB01880F991FAA1F7F
:10066000BB1FAC01BD01440F551F661F771F440F10
:10067000551F661F771F840F951FA61FB71F08966B
:10068000A11DB11D8093D8019093D901A093DA01E7
:10069000B093DB014DC08B34910531F58091D801C9
:1006A0009091D901A091DA01B091DB01880F991FD7
:1006B000AA1FBB1FAC01BD01440F551F661F771F4A
:1006C000440F551F661F771F840F951FA61FB71F66
:1006D0000996A11DB11D8093D8019093D901A093D3
:1006E000DA01B093DB0124C0479711F58091D8015E
:1006F0009091D901A091DA01B091DB01880F991F87
:10070000AA1FBB1FAC01BD01440F551F661F771FF9
:10071000440F551F661F771F840F951FA61FB71F15
:100720008093D8019093D901A093DA01B093DB01B3
:100730001F910F910895CF93DF93CDB7DEB7289720
:100740000FB6F894DEBF0FBECDBF86E082BF81E05A
:1007500087BF84E083BF78947CDD19821A821B8274
:100760001C820F2EF4E3EF2EF1E0FF2EF02D04ECAF
:1007700011E0602E712E0F2EFFE88F2EF1E09F2EDC
:10078000F02D0F2EF7E94F2EF1E05F2EF02D809126
:10079000E0019091E101009709F03EC012DD8B3835
:1007A000910541F481E090E09093E1018093E001B4
:1007B00001DDEDCF80B1813041F482E090E0909393
:1007C000E1018093E001F6DCE2CF43E251E060E03A
:1007D00080E0AEDC8091E5018F938091E4018F93FE
:1007E0008091E7018F938091E6018F9380910201C0
:1007F0008F93809101018F93FF92EF921F930F933C
:100800003FD2462D572D61E080E092DC0FB6F89480
:10081000DEBF0FBECDBFC2CF8130910509F5D1DC5F
:100820008E31910541F482E090E09093E101809354
:10083000E001C0DCACCF8E9741F484E090E090936F
:10084000E1018093E001B6DCA2CF4BE451E060E02F
:1008500080E06EDC4CE551E061E080E069DCDFCFF8
:100860008230910509F00AC1BB24B394AADC6C0163
:100870004DE651E060E080E05BDCC601BBDDBEE838
:10088000CB16D10481F58091D8019091D901A09126
:10089000DA01B091DB0181342DE0920723E0A20759
:1008A000B1051CF0B092DF0170C04091D4015091AD
:1008B000D5016091D6017091D701840F951FA61FB5
:1008C000B71F8093D4019093D501A093D601B09324
:1008D000D7011092D8011092D9011092DA0110922A
:1008E000DB0168DC52C08DE8C816D104C9F58091DF
:1008F000D4019091D501A091D601B091D701813456
:100900002DE0920723E0A207B1051CF0B092DF01B1
:100910003CC04091D8015091D9016091DA017091A9
:10092000DB01840F951FA61FB71F8093D4019093FE
:10093000D501A093D601B093D7011092D80110929F
:10094000D9011092DA011092DB0134DCB092DE01A1
:10095000109200018091DF01882309F473C01AC04E
:100960008091DE01882389F087E4C816D10469F4F8
:1009700083E090E09093E1018093E0011BDC81E053
:10098000809300011092DE0102CF8091DF01882365
:1009900009F43DC00F2EF3E0CF2ED12CF02D81E1D4
:1009A000EEE7F1E0D80101900D928A95E1F7A801F8
:1009B00061E080E0BDDB88EE93E0E0E9F1E03197B3
:1009C000F1F70197D1F7F6DB88EE93E0E0E9F1E08B
:1009D0003197F1F70197D1F791E0C91AD108F9F6EB
:1009E0001092D4011092D5011092D6011092D70125
:1009F0001092D8011092D9011092DA011092DB0105
:100A00001092DF011092E1011092E001C0CE8091BE
:100A100000018823B9F08091DB018F938091DA0186
:100A20008F938091D9018F938091D8018F939F925A
:100A30008F921F930F9324D10FB6F894DEBF0FBE91
:100A4000CDBF16C08091D7018F938091D6018F932F
:100A50008091D5018F938091D4018F935F924F92B3
:100A60001F930F930DD10FB6F894DEBF0FBECDBF0D
:100A7000462D572D6B2D80E05BDBF8CE8330910542
:100A800009F0BFC0332433949CDB5C0141EA51E0A0
:100A900060E080E04DDBC501ADDC9DE8A916B10446
:100AA00009F0E8C04091D4015091D5016091D60180
:100AB0007091D7018091D8019091D901A091DA016C
:100AC000B091DB018D839E83AF83B8878417950730
:100AD000A607B7071CF43092DF012BC089819A81E9
:100AE000AB81BC81840F951FA61FB71F89839A8392
:100AF000AB83BC838D819E81AF81B885841B950BB0
:100B0000A60BB70B8093D8019093D901A093DA017B
:100B1000B093DB011092D4011092D5011092D6014E
:100B20001092D7013092DD0145DB8091DF018823EF
:100B3000A1F10F2EF3E0CF2ED12CF02D81E1EEE7C5
:100B4000F1E0D80101900D928A95E1F7A801632D9B
:100B500080E0EEDA88EE93E0E0E9F1E03197F1F73A
:100B60000197D1F727DB88EE93E0E0E9F1E03197D8
:100B7000F1F70197D1F791E0C91AD108F9F610926F
:100B8000D8011092D9011092DA011092DB01109273
:100B9000DF01A7E8AA16B10421F08091DC018823C7
:100BA000A9F01092E1011092E0011092E30110927D
:100BB000E2011092D8011092D9011092DA0110923C
:100BC000DB011092DD011092DC01E1CD8091DB01AF
:100BD0008F938091DA018F938091D9018F938091C7
:100BE000D8018F939F928F921F930F9349D0A801A2
:100BF000632D80E09DDA0FB6F894DEBF0FBECDBF47
:100C000043CF049709F0C3CD81E08093DD01D2DAB0
:100C1000D8DA8738910521F08091DC01882369F0CA
:100C20001092E1011092E0011092E3011092E201B2
:100C30001092DC011092DD01AACD42EB51E060E0A0
:100C400080E076DA9C819F93AB81AF93BA81BF93AA
:100C500029812F935F924F921F930F9311D0462DAE
:100C6000572D61E080E064DA0FB6F894DEBF0FBE66
:100C7000CDBFCECF8091DF01882309F48ACF59CF31
:100C80000F931F93CF93DF93CDB7DEB72E970FB699
:100C9000F894DEBF0FBECDBF0D891E8986E08C8320
:100CA0001A8309838FEF9FE79E838D83AE01475E92
:100CB0005F4F6F89788DCE01019610D0EF81F88556
:100CC000E00FF11F10822E960FB6F894DEBF0FBE14
:100CD000CDBFDF91CF911F910F9108952F923F9239
:100CE0004F925F926F927F928F929F92AF92BF923C
:100CF000CF92DF92EF92FF920F931F93CF93DF93E8
:100D0000CDB7DEB72B970FB6F894DEBF0FBECDBFC1
:100D10006C017B018A01FC0117821682838181FFAD
:100D2000BFC1CE0101963C01F6019381F70193FD0D
:100D3000859193FF81917F01882309F4ADC18532AC
:100D400039F493FD859193FF81917F01853221F4E0
:100D5000B60190E0D6D1E8CF912C212C312CFFE1C7
:100D6000F315D8F08B3279F038F4803279F0833291
:100D7000A1F4232D20611DC08D3261F0803369F410
:100D8000232D216016C0832D8260382EE32DE46070
:100D90003E2E2AC0F32DF8601DC037FC2DC020ED7B
:100DA000280F2A3040F08E32B9F436FC75C1232D5D
:100DB0002064322E19C036FE06C08AE0989E200DAF
:100DC0001124922E11C0EAE02E9E200D1124222E15
:100DD000F32DF0623F2E08C08C3621F4832D8068FD
:100DE000382E02C0883641F4F70193FD859193FFB8
:100DF00081917F018111B3CF982F9F7D95549330BE
:100E000028F40C5F1F4F9FE399830DC0833631F0A8
:100E1000833771F0833509F055C020C0F801808117
:100E200089830E5F1F4F88248394912C530112C035
:100E30002801F2E04F0E511CF801A080B18036FE6F
:100E400003C0692D70E002C06FEF7FEFC5014ED186
:100E50004C018201F32DFF773F2E15C0280122E0BF
:100E6000420E511CF801A080B18036FE03C0692DEE
:100E700070E002C06FEF7FEFC5012DD14C01F32D63
:100E8000F0683F2E820133FC19C0822D90E0881655
:100E90009906A0F4B60180E290E033D12A94F5CF10
:100EA000F50137FC859137FE81915F01B60190E035
:100EB00028D121102A9421E0821A910881149104EA
:100EC00079F7E1C0843611F0893639F5F80137FE3B
:100ED00007C060817181828193810C5F1F4F08C0C0
:100EE00060817181072E000C880B990B0E5F1F4FDC
:100EF000F32DFF763F2E97FF09C090958095709552
:100F000061957F4F8F4F9F4FF0683F2E2AE030E072
:100F1000A30133D1882E861844C0853731F4232DA0
:100F20002F7EB22E2AE030E025C0932D997FB92E76
:100F30008F36C1F018F4883579F0AEC0803719F0DB
:100F4000883721F0A9C0E92FE061BE2EB4FE0DC0A4
:100F5000FB2DF460BF2E09C034FE0AC0292F266085
:100F6000B22E06C028E030E005C020E130E002C02B
:100F700020E132E0F801B7FE07C060817181828113
:100F800093810C5F1F4F06C06081718180E090E00B
:100F90000E5F1F4FA301F1D0882E8618FB2DFF771F
:100FA0003F2E36FE0DC0232D2E7FA22E891458F41D
:100FB00034FE0BC032FC09C0832D8E7EA82E05C0E6
:100FC000B82CA32C03C0B82C01C0B92CA4FE0FC0B0
:100FD000FE01E80DF11D8081803321F49A2D997E68
:100FE000A92E09C0A2FE06C0B394B39404C08A2DF2
:100FF000867809F0B394A3FC10C0A0FE06C0B2141A
:1010000080F4280C922C9B180DC0B21458F4B60131
:1010100080E290E076D0B394F8CFB21418F42B1895
:1010200002C0982C212CA4FE0FC0B60180E390E0F2
:1010300068D0A2FE16C0A1FC03C088E790E002C001
:1010400088E590E0B6010CC08A2D867851F0A1FEAB
:1010500002C08BE201C080E2A7FC8DE2B60190E005
:1010600050D0891430F4B60180E390E04AD09A94CD
:10107000F8CF8A94F301E80DF11D8081B60190E06C
:1010800040D08110F6CF222009F44ECEB60180E286
:1010900090E037D02A94F7CFF6018681978102C07D
:1010A0008FEF9FEF2B960FB6F894DEBF0FBECDBF2C
:1010B000DF91CF911F910F91FF90EF90DF90CF9034
:1010C000BF90AF909F908F907F906F905F904F9068
:1010D0003F902F900895FC010590615070400110E1
:1010E000D8F7809590958E0F9F1F0895FC01615051
:1010F000704001900110D8F7809590958E0F9F1F3A
:1011000008950F931F93CF93DF93FB01238121FD5C
:1011100003C08FEF9FEF2CC022FF16C0468157817E
:10112000248135814217530744F4A081B1819D0188
:101130002F5F3F4F318320838C93268137812F5F30
:101140003F4F3783268314C08B01EC01FB010084E1
:10115000F185E02D0995892BE1F6D80116968D9140
:101160009C911797019617969C938E931697CE0194
:10117000DF91CF911F910F910895FA01AA2728308E
:1011800051F1203181F1E8946F936E7F6E5F7F4F54
:101190008F4F9F4FAF4FB1E03ED0B4E03CD0670FD0
:1011A000781F891F9A1FA11D680F791F8A1F911D23
:1011B000A11D6A0F711D811D911DA11D20D009F473
:1011C00068943F912AE0269F11243019305D3193B5
:1011D000DEF6CF010895462F4770405D4193B3E09E
:1011E0000FD0C9F7F6CF462F4F70405D4A3318F045
:1011F000495D31FD4052419302D0A9F7EACFB4E0F6
:10120000A6959795879577956795BA95C9F70097AD
:101210006105710508959B01AC010A2E069457954E
:10122000479537952795BA95C9F7620F731F841FA5
:0A123000951FA01D0895F894FFCF4C
:10123A00010800202020204D41524B4554202020F7
:10124A002020002020202053595354454D2020208F
:10125A002020002020202057454C434F4D45212176
:10126A002020200020202020253032643A253032E8
:10127A00643A253032642020202000313A2043612C
:10128A006C63756C6174696F6E202000323A205469
:10129A006F74616C2053616C657320200043616C2C
:1012AA0063756C617465204D6F6465202000202091
:1012BA002020204552524F52212020202020002059
:1012CA00202020256C64003D20256C6420776F6EF9
:1012DA00004368616E676573204D6F646520202046
:1012EA002000546F74616C2053616C657320202058
:0412FA0020200000B0
:00000001FF
