:1000000045C0000061C000005FC000005DC000008E
:100010005BC0000059C0000057C0000055C0000080
:1000200053C0000051C000004FC000004DC0000090
:100030004BC0000049C0000047C0000045C00000A0
:1000400052C1000041C000003FC000003DC00000A0
:100050003BC0000039C0000037C0000035C00000C0
:1000600033C0000031C000002FC000002DC00000D0
:100070002BC0000029C0000027C0000025C00000E0
:1000800023C0000021C000001FC0000011241FBEBB
:10009000CFEFD0E1DEBFCDBF11E0A0E0B1E0ECEBEF
:1000A000F1E100E00BBF02C007900D92A43CB10744
:1000B000D9F721E0A4ECB1E001C01D92A83EB2073F
:1000C000E1F739D30C94DC089BCF8FEF84BB85BB61
:1000D0000895982F907F95BBAA9AAA9820E1829FB5
:1000E000C001112485BBAA9AAA9880E49FE10197D8
:1000F000F1F70895982F907F916095BBAA9AAA98DE
:1001000020E1829FC0011124816085BBAA9AAA9830
:1001100080E49FE10197F1F70895662319F06130BB
:1001200021F008958058D5CF08958054D2CF0895F6
:100130000F931F93CF93DF93042F152FEEDFC02F64
:10014000D12F8991D7DF88818111FBCFDF91CF91AA
:100150001F910F910895B9DF80ED97E020E931E01C
:10016000F9013197F1F70197D9F780E699E0019706
:10017000F1F788E2AEDF80ED97E020E931E0F901A8
:100180003197F1F70197D9F788E2A3DF80ED97E087
:1001900020E931E0F9013197F1F70197D9F78CE0C7
:1001A00098DF86E096DF82E094DF81E092DF81E0F5
:1001B00090CF089581E08DDF80E49CE90197F1F70D
:1001C00008958EEF82BB8AE18A95F1F780B390E0C3
:1001D00080959095807F99270097C9F421E030E0C1
:1001E00061E070E04AE1CB01022E02C0880F991F46
:1001F0000A94E2F7809582BB842F8A95F1F780B349
:1002000090E080959095807F9927009799F022B390
:100210002F70AC01422B9A018091E6019091E70189
:100220002817390799F03093E7012093E601822FD0
:10023000932F08952F5F3F4F24303105A1F6109280
:10024000E7011092E60180E090E0089580E090E000
:1002500008958FEF8ABB9FE091BB1092610082BB33
:100260007ADFA8DF43E051E060E080E061DF43E156
:1002700051E061E080E05CDF1BBA88E893E120E9AF
:1002800031E0F9013197F1F70197D9F793DF80EE6B
:100290008BBB88E893E120E931E0F9013197F1F770
:1002A0000197D9F743E051E060E080E041DF43E1AE
:1002B00051E061E080E03CDF1BBA88E893E120E98F
:1002C00031E0F9013197F1F70197D9F773DF80EE4B
:1002D0008BBB88E893E120E931E0F9013197F1F730
:1002E0000197D9F708951F920F920FB60F9211241C
:1002F0002F933F938F939F938091E4019091E50119
:1003000001969093E5018093E4018091D9018823BF
:1003100049F08091DE019091DF0101969093DF0119
:100320008093DE0180910101909102018831910555
:1003300088F01092E5011092E4011092E101109210
:10034000E0011092E3011092E2011092020110927A
:10035000010123C02091E2013091E3012C333105EA
:1003600048F0019690930201809301011092E301FD
:100370001092E2018091E0019091E101CC9768F048
:100380008091E2019091E30101969093E3018093C3
:10039000E2011092E1011092E0018091E40190915C
:1003A000E501883E934068F08091E0019091E10181
:1003B00001969093E1018093E0011092E501109283
:1003C000E4018091DE019091DF018838934148F08B
:1003D00081E08093D8011092D9011092DF01109230
:1003E000DE019F918F913F912F910F900FBE0F9043
:1003F0001F9018950F931F938E31910539F54091F9
:10040000C4015091C5016091C6017091C701440FAC
:10041000551F661F771F8A019B01000F111F221FA6
:10042000331F000F111F221F331F400F511F621F68
:10043000731F4F5F5F4F6F4F7F4F4093C4015093C7
:10044000C5016093C6017093C70154C08E329105F7
:1004500039F54091C4015091C5016091C601709178
:10046000C701440F551F661F771F8A019B01000FAC
:10047000111F221F331F000F111F221F331F400F98
:10048000511F621F731F4E5F5F4F6F4F7F4F40932F
:10049000C4015093C5016093C6017093C70154C055
:1004A0008E34910539F54091C4015091C501609198
:1004B000C6017091C701440F551F661F771F8A013F
:1004C0009B01000F111F221F331F000F111F221F3E
:1004D000331F400F511F621F731F4D5F5F4F6F4FE0
:1004E0007F4F4093C4015093C5016093C601709340
:1004F000C70154C08D31910539F54091C401509127
:10050000C5016091C6017091C701440F551F661F58
:10051000771F8A019B01000F111F221F331F000F3D
:10052000111F221F331F400F511F621F731F4C5F8B
:100530005F4F6F4F7F4F4093C4015093C50160934D
:10054000C6017093C70154C08D32910539F54091B1
:10055000C4015091C5016091C6017091C701440F5B
:10056000551F661F771F8A019B01000F111F221F55
:10057000331F000F111F221F331F400F511F621F17
:10058000731F4B5F5F4F6F4F7F4F4093C40150937A
:10059000C5016093C6017093C70154C08D349105A5
:1005A00039F54091C4015091C5016091C601709127
:1005B000C701440F551F661F771F8A019B01000F5B
:1005C000111F221F331F000F111F221F331F400F47
:1005D000511F621F731F4A5F5F4F6F4F7F4F4093E2
:1005E000C4015093C5016093C6017093C70153C005
:1005F0008B31910539F54091C4015091C50160914D
:10060000C6017091C701440F551F661F771F8A01ED
:100610009B01000F111F221F331F000F111F221FEC
:10062000331F400F511F621F731F495F5F4F6F4F92
:100630007F4F4093C4015093C5016093C6017093EE
:10064000C70152C08B32910531F58091C401909160
:10065000C501A091C601B091C701880F991FAA1FBB
:10066000BB1FAC01BD01440F551F661F771F440F10
:10067000551F661F771F840F951FA61FB71F08966B
:10068000A11DB11D8093C4019093C501A093C60123
:10069000B093C7014DC08B34910531F58091C401F1
:1006A0009091C501A091C601B091C701880F991F13
:1006B000AA1FBB1FAC01BD01440F551F661F771F4A
:1006C000440F551F661F771F840F951FA61FB71F66
:1006D0000996A11DB11D8093C4019093C501A093FB
:1006E000C601B093C70124C0479711F58091C4019A
:1006F0009091C501A091C601B091C701880F991FC3
:10070000AA1FBB1FAC01BD01440F551F661F771FF9
:10071000440F551F661F771F840F951FA61FB71F15
:100720008093C4019093C501A093C601B093C70103
:100730001F910F910895CF93DF9300D000D0CDB7D4
:10074000DEB786E082BF81E087BF84E083BF789414
:1007500080DD412C512C320119821A821B821C82AD
:100760000F2EF4E3EF2EF1E0FF2EF02D08EC11E058
:10077000802E912E0F2EFFE82F2EF1E03F2EF02D30
:100780008091DC019091DD01009709F03EC019DDF8
:100790008B38910541F421E030E03093DD01209366
:1007A000DC0108DDEDCF80B1813041F482E090E0E2
:1007B0009093DD018093DC01FDDCE2CF43E251E068
:1007C00060E080E0B5DC8091E1018F938091E001F1
:1007D0008F938091E3018F938091E2018F938091B9
:1007E00002018F93809101018F93FF92EF921F93EB
:1007F0000F9307D2482D592D61E080E099DC0FB6A8
:10080000F894DEBF0FBECDBFC2CF8130910509F590
:10081000D8DC8E31910541F482E090E09093DD01C7
:100820008093DC01C7DCACCF8E9741F484E090E08C
:100830009093DD018093DC01BDDCA2CF4BE451E05D
:1008400060E080E075DC4CE551E061E080E070DC68
:10085000DFCF8230910509F0E0C0BB24B394B1DC56
:100860006C014DE651E060E080E062DCC601C2DD73
:100870005EE8C516D10401F58091C4019091C501CF
:10088000A091C601B091C70181342DE0920723E009
:10089000A207B1051CF0B092DB0151C0480E591EF1
:1008A0006A1E7B1E1092C4011092C5011092C601EF
:1008B0001092C7017FDC43C03DE8C316D10451F557
:1008C00041E444164DE0540643E0640671041CF014
:1008D000B092DB0134C08091C4019091C501A09118
:1008E000C601B091C701480E591E6A1E7B1E1092A8
:1008F000C4011092C5011092C6011092C7015ADCC2
:10090000B092DA01109200018091DB01882309F492
:100910006EC01AC08091DA01882389F057E4C516A9
:10092000D10469F483E090E09093DD018093DC01D1
:1009300041DC81E0809300011092DA0121CF8091A7
:10094000DB01882309F438C00F2EF3E0CF2ED12C21
:10095000F02D81E1EEE7F1E0D80101900D928A954A
:10096000E1F7A80161E080E0E3DB88EE93E0E0E9F5
:10097000F1E03197F1F70197D1F71CDC88EE93E0B5
:10098000E0E9F1E03197F1F70197D1F781E0C81A7A
:10099000D108F9F61092C4011092C5011092C60157
:1009A0001092C7011092DB011092DD011092DC0160
:1009B000412C512C3201E4CE809100018823B9F002
:1009C0008091C7018F938091C6018F938091C5015B
:1009D0008F938091C4018F933F922F921F930F9317
:1009E00010D10FB6F894DEBF0FBECDBF10C07F92FE
:1009F0006F925F924F9247E951E05F934F931F933D
:100A00000F93FFD00FB6F894DEBF0FBECDBF482DB9
:100A1000592D6B2D80E08CDB22CF8330910509F0BE
:100A2000AFC0CFDB5C0141EA51E060E080E080DBF9
:100A3000C501E0DC3DE8A316B10409F0DCC08091FB
:100A4000C4019091C501A091C601B091C701841560
:100A50009505A605B70524F441E04093DB0124C0C9
:100A600029813A814B815C81240D351D461D571D1E
:100A700029833A834B835C8384199509A609B709B6
:100A80008093C4019093C501A093C601B093C701A0
:100A900031E03093D9018EDB8091DB01882309F4AA
:100AA00038C0412C512C32010F2EF3E0CF2ED12C27
:100AB000F02D81E1EEE7F1E0D80101900D928A95E9
:100AC000E1F7A80161E080E033DB88EE93E0E0E944
:100AD000F1E03197F1F70197D1F76CDB88EE93E005
:100AE000E0E9F1E03197F1F70197D1F741E0C41A5D
:100AF000D108F9F61092C4011092C5011092C601F6
:100B00001092C7011092DB0157E8A516B10421F439
:100B100007C0412C512C32018091D8018823A9F0C3
:100B20001092DD011092DC011092DF011092DE01C3
:100B30001092C4011092C5011092C6011092C70113
:100B40001092D9011092D8011BCE8091C7018F93CA
:100B50008091C6018F938091C5018F938091C401CC
:100B60008F933F922F921F930F934BD0A80161E078
:100B700080E0DEDA0FB6F894DEBF0FBECDBF51CFF6
:100B8000049709F0FDCD81E08093D90113DB19DBD7
:100B90008738910521F08091D801882369F010925F
:100BA000DD011092DC011092DF011092DE01109243
:100BB000D8011092D901E4CD42EB51E060E080E031
:100BC000B7DA9C819F932B812F933A813F93498180
:100BD0004F9387E991E09F938F931F930F9311D0C9
:100BE000482D592D61E080E0A3DA0FB6F894DEBFFE
:100BF0000FBECDBFCCCF8091DB01882309F484CF19
:100C000053CF0F931F93CF93DF93CDB7DEB72E97BC
:100C10000FB6F894DEBF0FBECDBF0D891E8986E0EA
:100C20008C831A8309838FEF9FE79E838D83AE01A8
:100C3000475E5F4F6F89788DCE01019610D0EF81AE
:100C4000F885E00FF11F10822E960FB6F894DEBFE4
:100C50000FBECDBFDF91CF911F910F9108952F92BD
:100C60003F924F925F926F927F928F929F92AF923C
:100C7000BF92CF92DF92EF92FF920F931F93CF9389
:100C8000DF93CDB7DEB72B970FB6F894DEBF0FBE5C
:100C9000CDBF6C017B018A01FC0117821682838122
:100CA00081FFBFC1CE0101963C01F6019381F7019E
:100CB00093FD859193FF81917F01882309F4ADC154
:100CC000853239F493FD859193FF81917F018532BF
:100CD00021F4B60190E0D6D1E8CF912C212C312C13
:100CE000FFE1F315D8F08B3279F038F4803279F0E7
:100CF0008332A1F4232D20611DC08D3261F0803339
:100D000069F4232D216016C0832D8260382EE32DD7
:100D1000E4603E2E2AC0F32DF8601DC037FC2DC0C4
:100D200020ED280F2A3040F08E32B9F436FC75C120
:100D3000232D2064322E19C036FE06C08AE0989E0C
:100D4000200D1124922E11C0EAE02E9E200D1124B8
:100D5000222EF32DF0623F2E08C08C3621F4832D15
:100D60008068382E02C0883641F4F70193FD8591E2
:100D700093FF81917F018111B3CF982F9F7D95546F
:100D8000933028F40C5F1F4F9FE399830DC0833687
:100D900031F0833771F0833509F055C020C0F80178
:100DA000808189830E5F1F4F88248394912C530187
:100DB00012C02801F2E04F0E511CF801A080B18052
:100DC00036FE03C0692D70E002C06FEF7FEFC501F2
:100DD0004ED14C018201F32DFF773F2E15C0280123
:100DE00022E0420E511CF801A080B18036FE03C003
:100DF000692D70E002C06FEF7FEFC5012DD14C016E
:100E0000F32DF0683F2E820133FC19C0822D90E053
:100E100088169906A0F4B60180E290E033D12A94B6
:100E2000F5CFF50137FC859137FE81915F01B60161
:100E300090E028D121102A9421E0821A910881148F
:100E4000910479F7E1C0843611F0893639F5F8015B
:100E500037FE07C060817181828193810C5F1F4FD3
:100E600008C060817181072E000C880B990B0E5F02
:100E70001F4FF32DFF763F2E97FF09C09095809569
:100E8000709561957F4F8F4F9F4FF0683F2E2AE0FE
:100E900030E0A30133D1882E861844C0853731F461
:100EA000232D2F7EB22E2AE030E025C0932D997F8E
:100EB000B92E8F36C1F018F4883579F0AEC080377E
:100EC00019F0883721F0A9C0E92FE061BE2EB4FEE9
:100ED0000DC0FB2DF460BF2E09C034FE0AC0292FBF
:100EE0002660B22E06C028E030E005C020E130E0E8
:100EF00002C020E132E0F801B7FE07C060817181D5
:100F0000828193810C5F1F4F06C06081718180E0F8
:100F100090E00E5F1F4FA301F1D0882E8618FB2DA5
:100F2000FF773F2E36FE0DC0232D2E7FA22E891473
:100F300058F434FE0BC032FC09C0832D8E7EA82EDF
:100F400005C0B82CA32C03C0B82C01C0B92CA4FE3A
:100F50000FC0FE01E80DF11D8081803321F49A2D30
:100F6000997EA92E09C0A2FE06C0B394B39404C012
:100F70008A2D867809F0B394A3FC10C0A0FE06C0A9
:100F8000B21480F4280C922C9B180DC0B21458F4A3
:100F9000B60180E290E076D0B394F8CFB21418F4A2
:100FA0002B1802C0982C212CA4FE0FC0B60180E3A0
:100FB00090E068D0A2FE16C0A1FC03C088E790E0D4
:100FC00002C088E590E0B6010CC08A2D867851F009
:100FD000A1FE02C08BE201C080E2A7FC8DE2B60157
:100FE00090E050D0891430F4B60180E390E04AD00C
:100FF0009A94F8CF8A94F301E80DF11D8081B6012F
:1010000090E040D08110F6CF222009F44ECEB601F8
:1010100080E290E037D02A94F7CFF601868197815D
:1010200002C08FEF9FEF2B960FB6F894DEBF0FBE76
:10103000CDBFDF91CF911F910F91FF90EF90DF9087
:10104000CF90BF90AF909F908F907F906F905F9068
:101050004F903F902F900895FC0105906150704093
:101060000110D8F7809590958E0F9F1F0895FC0171
:101070006150704001900110D8F7809590958E0FC7
:101080009F1F08950F931F93CF93DF93FB0123813D
:1010900021FD03C08FEF9FEF2CC022FF16C04681B9
:1010A0005781248135814217530744F4A081B181CF
:1010B0009D012F5F3F4F318320838C9326813781A1
:1010C0002F5F3F4F3783268314C08B01EC01FB0158
:1010D0000084F185E02D0995892BE1F6D80116965B
:1010E0008D919C911797019617969C938E931697C6
:1010F000CE01DF91CF911F910F910895FA01AA2798
:10110000283051F1203181F1E8946F936E7F6E5F4A
:101110007F4F8F4F9F4FAF4FB1E03ED0B4E03CD0F8
:10112000670F781F891F9A1FA11D680F791F8A1FDB
:10113000911DA11D6A0F711D811D911DA11D20D042
:1011400009F468943F912AE0269F11243019305DFC
:101150003193DEF6CF010895462F4770405D4193ED
:10116000B3E00FD0C9F7F6CF462F4F70405D4A333A
:1011700018F0495D31FD4052419302D0A9F7EACF02
:10118000B4E0A6959795879577956795BA95C9F731
:1011900000976105710508959B01AC010A2E069424
:1011A0005795479537952795BA95C9F7620F731FDD
:0C11B000841F951FA01D0895F894FFCF28
:1011BC00010800202020204D41524B455420202076
:1011CC002020002020202053595354454D2020200E
:1011DC002020002020202057454C434F4D452121F5
:1011EC002020200020202020253032643A25303267
:1011FC00643A253032642020202000313A204361AB
:10120C006C63756C6174696F6E202000323A2054E7
:10121C006F74616C2053616C657320200043616CAA
:10122C0063756C617465204D6F646520200020200F
:10123C002020204552524F522120202020200020D7
:10124C00202020256C64003D20256C6420776F6E77
:10125C00004368616E676573204D6F6465202020C4
:10126C002000546F74616C2053616C6573202020D6
:04127C00202000002E
:00000001FF
