:1000000045C0000061C000005FC000005DC000008E
:100010005BC0000059C0000057C0000055C0000080
:1000200053C0000051C000004FC000004DC0000090
:100030004BC0000049C0000047C0000045C00000A0
:1000400052C1000041C000003FC000003DC00000A0
:100050003BC0000039C0000037C0000035C00000C0
:1000600033C0000031C000002FC000002DC00000D0
:100070002BC0000029C0000027C0000025C00000E0
:1000800023C0000021C000001FC0000011241FBEBB
:10009000CFEFD0E1DEBFCDBF11E0A0E0B1E0E6E5FB
:1000A000F2E100E00BBF02C007900D92AC3CB1073B
:1000B000D9F721E0ACECB1E001C01D92A83FB20736
:1000C000E1F739D30C9429099BCF8FEF84BB85BB13
:1000D0000895982F907F95BBAA9AAA9820E1829FB5
:1000E000C001112485BBAA9AAA9880E49FE10197D8
:1000F000F1F70895982F907F916095BBAA9AAA98DE
:1001000020E1829FC0011124816085BBAA9AAA9830
:1001100080E49FE10197F1F70895662319F06130BB
:1001200021F008958058D5CF08958054D2CF0895F6
:100130000F931F93CF93DF93042F152FEEDFC02F64
:10014000D12F8991D7DF88818111FBCFDF91CF91AA
:100150001F910F910895B9DF80ED97E020E931E01C
:10016000F9013197F1F70197D9F780E699E0019706
:10017000F1F788E2AEDF80ED97E020E931E0F901A8
:100180003197F1F70197D9F788E2A3DF80ED97E087
:1001900020E931E0F9013197F1F70197D9F78CE0C7
:1001A00098DF86E096DF82E094DF81E092DF81E0F5
:1001B00090CF089581E08DDF80E49CE90197F1F70D
:1001C00008958EEF82BB8AE18A95F1F780B390E0C3
:1001D00080959095807F99270097C9F421E030E0C1
:1001E00061E070E04AE1CB01022E02C0880F991F46
:1001F0000A94E2F7809582BB842F8A95F1F780B349
:1002000090E080959095807F9927009799F022B390
:100210002F70AC01422B9A018091F6019091F70169
:100220002817390799F03093F7012093F601822FB0
:10023000932F08952F5F3F4F24303105A1F6109280
:10024000F7011092F60180E090E0089580E090E0E0
:1002500008958FEF8ABB9FE091BB1092610082BB33
:100260007ADFA8DF43E051E060E080E061DF43E156
:1002700051E061E080E05CDF1BBA88E893E120E9AF
:1002800031E0F9013197F1F70197D9F793DF80EE6B
:100290008BBB88E893E120E931E0F9013197F1F770
:1002A0000197D9F743E051E060E080E041DF43E1AE
:1002B00051E061E080E03CDF1BBA88E893E120E98F
:1002C00031E0F9013197F1F70197D9F773DF80EE4B
:1002D0008BBB88E893E120E931E0F9013197F1F730
:1002E0000197D9F708951F920F920FB60F9211241C
:1002F0002F933F938F939F938091F4019091F501F9
:1003000001969093F5018093F4018091E90188238F
:1003100049F08091EE019091EF0101969093EF01E9
:100320008093EE0180910101909102018831910545
:1003300088F01092F5011092F4011092F1011092E0
:10034000F0011092F3011092F2011092020110924A
:10035000010123C02091F2013091F3012C333105CA
:1003600048F0019690930201809301011092F301ED
:100370001092F2018091F0019091F101CC9768F018
:100380008091F2019091F30101969093F301809393
:10039000F2011092F1011092F0018091F40190911C
:1003A000F501883E934068F08091F0019091F10151
:1003B00001969093F1018093F0011092F501109253
:1003C000F4018091EE019091EF018838934148F05B
:1003D00081E08093E8011092E9011092EF01109200
:1003E000EE019F918F913F912F910F900FBE0F9033
:1003F0001F9018950F931F938E31910539F54091F9
:10040000E4015091E5016091E6017091E701440F2C
:10041000551F661F771F8A019B01000F111F221FA6
:10042000331F000F111F221F331F400F511F621F68
:10043000731F4F5F5F4F6F4F7F4F4093E4015093A7
:10044000E5016093E6017093E70154C08E32910597
:1004500039F54091E4015091E5016091E601709118
:10046000E701440F551F661F771F8A019B01000F8C
:10047000111F221F331F000F111F221F331F400F98
:10048000511F621F731F4E5F5F4F6F4F7F4F40932F
:10049000E4015093E5016093E6017093E70154C0D5
:1004A0008E34910539F54091E4015091E501609158
:1004B000E6017091E701440F551F661F771F8A01FF
:1004C0009B01000F111F221F331F000F111F221F3E
:1004D000331F400F511F621F731F4D5F5F4F6F4FE0
:1004E0007F4F4093E4015093E5016093E6017093E0
:1004F000E70154C08D31910539F54091E4015091E7
:10050000E5016091E6017091E701440F551F661FF8
:10051000771F8A019B01000F111F221F331F000F3D
:10052000111F221F331F400F511F621F731F4C5F8B
:100530005F4F6F4F7F4F4093E4015093E50160930D
:10054000E6017093E70154C08D32910539F5409171
:10055000E4015091E5016091E6017091E701440FDB
:10056000551F661F771F8A019B01000F111F221F55
:10057000331F000F111F221F331F400F511F621F17
:10058000731F4B5F5F4F6F4F7F4F4093E40150935A
:10059000E5016093E6017093E70154C08D34910545
:1005A00039F54091E4015091E5016091E6017091C7
:1005B000E701440F551F661F771F8A019B01000F3B
:1005C000111F221F331F000F111F221F331F400F47
:1005D000511F621F731F4A5F5F4F6F4F7F4F4093E2
:1005E000E4015093E5016093E6017093E70153C085
:1005F0008B31910539F54091E4015091E50160910D
:10060000E6017091E701440F551F661F771F8A01AD
:100610009B01000F111F221F331F000F111F221FEC
:10062000331F400F511F621F731F495F5F4F6F4F92
:100630007F4F4093E4015093E5016093E60170938E
:10064000E70152C08B32910531F58091E401909120
:10065000E501A091E601B091E701880F991FAA1F5B
:10066000BB1FAC01BD01440F551F661F771F440F10
:10067000551F661F771F840F951FA61FB71F08966B
:10068000A11DB11D8093E4019093E501A093E601C3
:10069000B093E7014DC08B34910531F58091E401B1
:1006A0009091E501A091E601B091E701880F991FB3
:1006B000AA1FBB1FAC01BD01440F551F661F771F4A
:1006C000440F551F661F771F840F951FA61FB71F66
:1006D0000996A11DB11D8093E4019093E501A093BB
:1006E000E601B093E70124C0479711F58091E4013A
:1006F0009091E501A091E601B091E701880F991F63
:10070000AA1FBB1FAC01BD01440F551F661F771FF9
:10071000440F551F661F771F840F951FA61FB71F15
:100720008093E4019093E501A093E601B093E70183
:100730001F910F910895CF93DF93CDB7DEB7289720
:100740000FB6F894DEBF0FBECDBF86E082BF81E05A
:1007500087BF84E083BF78947CDD0F2EF4E3EF2E17
:10076000F1E0FF2EF02D0CEC11E0402E512E0F2E5B
:10077000FFE8AF2EF1E0BF2EF02D0F2EF7E96F2E20
:10078000F1E07F2EF02D8091EC019091ED0100972A
:1007900009F03EC016DD8B38910541F481E090E010
:1007A0009093ED018093EC0105DDEDCF80B18130B8
:1007B00041F482E090E09093ED018093EC01FADC4B
:1007C000E2CF43E251E060E080E0B2DC8091F101F1
:1007D0008F938091F0018F938091F3018F9380919B
:1007E000F2018F93809102018F93809101018F9389
:1007F000FF92EF921F930F9351D2442D552D61E03C
:1008000080E096DC0FB6F894DEBF0FBECDBFC2CF3E
:100810008130910509F5D5DC8E31910541F482E0F6
:1008200090E09093ED018093EC01C4DCACCF8E9707
:1008300041F484E090E09093ED018093EC01BADC08
:10084000A2CF4BE451E060E080E072DC4CE551E087
:1008500061E080E06DDCDFCF8230910509F00AC1F4
:1008600099249394AEDC6C014DE651E060E080E0A9
:100870005FDCC601BFDDBEE8CB16D10481F58091F7
:10088000E4019091E501A091E601B091E701813486
:100890002DE0920723E0A207B1051CF09092EB0136
:1008A00070C04091E0015091E1016091E2017091CE
:1008B000E301840F951FA61FB71F8093E00190935B
:1008C000E101A093E201B093E3011092E4011092E0
:1008D000E5011092E6011092E7016CDC52C08DE850
:1008E000C816D104C9F58091E0019091E101A09171
:1008F000E201B091E30181342DE0920723E0A207E9
:10090000B1051CF09092EB013CC04091E401509184
:10091000E5016091E6017091E701840F951FA61F24
:10092000B71F8093E0019093E101A093E201B0939F
:10093000E3011092E4011092E5011092E601109299
:10094000E70138DC9092EA01109200018091EB01FE
:10095000882309F473C01AC08091EA01882389F0C2
:1009600087E4C816D10469F483E090E09093ED0128
:100970008093EC011FDC81E0809300011092EA017A
:1009800002CF8091EB01882309F43DC00F2EF3E0E4
:10099000CF2ED12CF02D81E1EEE7F1E0D8010190CE
:1009A0000D928A95E1F7A80161E080E0C1DB88EE55
:1009B00093E0E0E9F1E03197F1F70197D1F7FADB45
:1009C00088EE93E0E0E9F1E03197F1F70197D1F794
:1009D00091E0C91AD108F9F61092E0011092E101F4
:1009E0001092E2011092E3011092E4011092E501ED
:1009F0001092E6011092E7011092EB011092ED01C6
:100A00001092EC01C0CE809100018823B9F0809152
:100A1000E7018F938091E6018F938091E5018F9399
:100A20008091E4018F93BF92AF921F930F9336D1C1
:100A30000FB6F894DEBF0FBECDBF16C08091E301A4
:100A40008F938091E2018F938091E1018F93809148
:100A5000E0018F937F926F921F930F931FD10FB678
:100A6000F894DEBF0FBECDBF442D552D692D80E01B
:100A70005FDBF8CE8330910509F0C7C0332433948F
:100A8000A0DB4C0141EA51E060E080E051DBC401B1
:100A9000B1DC9DE88916910409F0FAC04091E001AB
:100AA0005091E1016091E2017091E3018091E401D4
:100AB0009091E501A091E601B091E7018D839E83BD
:100AC000AF83B88784179507A607B7071CF4309241
:100AD000EB0133C08091DC019091DD01A091DE013A
:100AE000B091DF01840F951FA61FB71F8093DC0113
:100AF0009093DD01A093DE01B093DF018D819E8193
:100B0000AF81B885841B950BA60BB70B8093E401CE
:100B10009093E501A093E601B093E7011092E00104
:100B20001092E1011092E2011092E3013092E9018A
:100B300041DB8091EB018823A1F10F2EF3E0CF2E52
:100B4000D12CF02D81E1EEE7F1E0D80101900D927A
:100B50008A95E1F7A801632D80E0EADA88EE93E058
:100B6000E0E9F1E03197F1F70197D1F723DB88EE67
:100B700093E0E0E9F1E03197F1F70197D1F791E0E7
:100B8000C91AD108F9F61092E4011092E501109209
:100B9000E6011092E7011092EB01A7E88A16910492
:100BA00021F08091E8018823A9F01092ED011092C4
:100BB000EC011092EF011092EE011092E4011092FC
:100BC000E5011092E6011092E7011092E9011092FE
:100BD000E801D9CD8091E7018F938091E6018F9351
:100BE0008091E5018F938091E4018F93BF92AF9242
:100BF0001F930F9353D0A801632D80E099DA0FB6AD
:100C0000F894DEBF0FBECDBF3BCF049709F0BBCD3C
:100C100081E08093E901CEDA0F2EF3ECCF2EF1E0E4
:100C2000DF2EF02DCEDA8738910521F08091E80192
:100C3000882369F01092ED011092EC011092EF01FF
:100C40001092EE011092E8011092E9019CCD42EB66
:100C500051E060E080E06CDA8091DF018F93809159
:100C6000DE018F938091DD018F938091DC018F9362
:100C7000DF92CF921F930F9311D0442D552D61E039
:100C800080E056DA0FB6F894DEBF0FBECDBFCACFF4
:100C90008091EB01882309F480CF4FCF0F931F93EE
:100CA000CF93DF93CDB7DEB72E970FB6F894DEBFA4
:100CB0000FBECDBF0D891E8986E08C831A83098300
:100CC0008FEF9FE79E838D83AE01475E5F4F6F89F5
:100CD000788DCE01019610D0EF81F885E00FF11FDD
:100CE00010822E960FB6F894DEBF0FBECDBFDF91F7
:100CF000CF911F910F9108952F923F924F925F9243
:100D00006F927F928F929F92AF92BF92CF92DF921B
:100D1000EF92FF920F931F93CF93DF93CDB7DEB780
:100D20002B970FB6F894DEBF0FBECDBF6C017B01D1
:100D30008A01FC0117821682838181FFBFC1CE0127
:100D400001963C01F6019381F70193FD859193FF94
:100D500081917F01882309F4ADC1853239F493FD77
:100D6000859193FF81917F01853221F4B60190E056
:100D7000D6D1E8CF912C212C312CFFE1F315D8F0FE
:100D80008B3279F038F4803279F08332A1F4232D5C
:100D900020611DC08D3261F0803369F4232D216004
:100DA00016C0832D8260382EE32DE4603E2E2AC0CB
:100DB000F32DF8601DC037FC2DC020ED280F2A3020
:100DC00040F08E32B9F436FC75C1232D2064322EEA
:100DD00019C036FE06C08AE0989E200D1124922E7E
:100DE00011C0EAE02E9E200D1124222EF32DF06278
:100DF0003F2E08C08C3621F4832D8068382E02C027
:100E0000883641F4F70193FD859193FF81917F012D
:100E10008111B3CF982F9F7D9554933028F40C5FA8
:100E20001F4F9FE399830DC0833631F0833771F0F4
:100E3000833509F055C020C0F801808189830E5F99
:100E40001F4F88248394912C530112C02801F2E093
:100E50004F0E511CF801A080B18036FE03C0692DF1
:100E600070E002C06FEF7FEFC5014ED14C018201EF
:100E7000F32DFF773F2E15C0280122E0420E511CB2
:100E8000F801A080B18036FE03C0692D70E002C079
:100E90006FEF7FEFC5012DD14C01F32DF0683F2E90
:100EA000820133FC19C0822D90E088169906A0F4C7
:100EB000B60180E290E033D12A94F5CFF50137FCFA
:100EC000859137FE81915F01B60190E028D1211014
:100ED0002A9421E0821A91088114910479F7E1C0E3
:100EE000843611F0893639F5F80137FE07C0608184
:100EF0007181828193810C5F1F4F08C06081718175
:100F0000072E000C880B990B0E5F1F4FF32DFF76F9
:100F10003F2E97FF09C090958095709561957F4F02
:100F20008F4F9F4FF0683F2E2AE030E0A30133D16E
:100F3000882E861844C0853731F4232D2F7EB22E9B
:100F40002AE030E025C0932D997FB92E8F36C1F06D
:100F500018F4883579F0AEC0803719F0883721F061
:100F6000A9C0E92FE061BE2EB4FE0DC0FB2DF460D8
:100F7000BF2E09C034FE0AC0292F2660B22E06C03B
:100F800028E030E005C020E130E002C020E132E09E
:100F9000F801B7FE07C060817181828193810C5F87
:100FA0001F4F06C06081718180E090E00E5F1F4F8F
:100FB000A301F1D0882E8618FB2DFF773F2E36FE39
:100FC0000DC0232D2E7FA22E891458F434FE0BC0A1
:100FD00032FC09C0832D8E7EA82E05C0B82CA32C10
:100FE00003C0B82C01C0B92CA4FE0FC0FE01E80D4F
:100FF000F11D8081803321F49A2D997EA92E09C09C
:10100000A2FE06C0B394B39404C08A2D867809F07A
:10101000B394A3FC10C0A0FE06C0B21480F4280C48
:10102000922C9B180DC0B21458F4B60180E290E0E7
:1010300076D0B394F8CFB21418F42B1802C0982CC1
:10104000212CA4FE0FC0B60180E390E068D0A2FE80
:1010500016C0A1FC03C088E790E002C088E590E0DC
:10106000B6010CC08A2D867851F0A1FE02C08BE239
:1010700001C080E2A7FC8DE2B60190E050D0891457
:1010800030F4B60180E390E04AD09A94F8CF8A9485
:10109000F301E80DF11D8081B60190E040D0811090
:1010A000F6CF222009F44ECEB60180E290E037D090
:1010B0002A94F7CFF6018681978102C08FEF9FEFC8
:1010C0002B960FB6F894DEBF0FBECDBFDF91CF9148
:1010D0001F910F91FF90EF90DF90CF90BF90AF9056
:1010E0009F908F907F906F905F904F903F902F9048
:1010F0000895FC010590615070400110D8F780956B
:1011000090958E0F9F1F0895FC01615070400190D3
:101110000110D8F7809590958E0F9F1F08950F931B
:101120001F93CF93DF93FB01238121FD03C08FEF3A
:101130009FEF2CC022FF16C0468157812481358144
:101140004217530744F4A081B1819D012F5F3F4FA7
:10115000318320838C93268137812F5F3F4F3783E4
:10116000268314C08B01EC01FB010084F185E02D86
:101170000995892BE1F6D80116968D919C911797C8
:10118000019617969C938E931697CE01DF91CF917F
:101190001F910F910895FA01AA27283051F12031AB
:1011A00081F1E8946F936E7F6E5F7F4F8F4F9F4FFB
:1011B000AF4FB1E03ED0B4E03CD0670F781F891F3D
:1011C0009A1FA11D680F791F8A1F911DA11D6A0F0B
:1011D000711D811D911DA11D20D009F468943F91BE
:1011E0002AE0269F11243019305D3193DEF6CF01BD
:1011F0000895462F4770405D4193B3E00FD0C9F783
:10120000F6CF462F4F70405D4A3318F0495D31FDEF
:101210004052419302D0A9F7EACFB4E0A695979542
:10122000879577956795BA95C9F700976105710518
:1012300008959B01AC010A2E069457954795379562
:101240002795BA95C9F7620F731F841F951FA01DBC
:061250000895F894FFCFA1
:10125600010800202020204D41524B4554202020DB
:101266002020002020202053595354454D20202073
:101276002020002020202057454C434F4D4521215A
:101286002020200020202020253032643A253032CC
:10129600643A253032642020202000313A20436110
:1012A6006C63756C6174696F6E202000323A20544D
:1012B6006F74616C2053616C657320200043616C10
:1012C60063756C617465204D6F6465202000202075
:1012D6002020204552524F5221202020202000203D
:1012E600202020256C64003D20256C6420776F6EDD
:1012F600004368616E676573204D6F64652020202A
:101306002000546F74616C2053616C65732020203B
:0C1316002020003D20256420776F6E0031
:00000001FF
