S00C00006D6172742E7372656364
S113000045C0000060C000005EC000005CC000008D
S11300105AC0000058C0000056C0000054C0000080
S113002052C0000050C000004EC000004CC0000090
S11300304AC0000048C0000046C0000044C00000A0
S11300403CC1000040C000003EC000003CC00000B5
S11300503AC0000038C0000036C0000034C00000C0
S113006032C0000030C000002EC000002CC00000D0
S11300702AC0000028C0000026C0000024C00000E0
S113008022C0000020C000001EC0000011241FBEBA
S1130090CFEFD0E1DEBFCDBF11E0A0E0B1E0E0E5FD
S11300A0FAE000E00BBF02C007900D92AE38B10732
S11300B0D9F721E0AEE8B1E001C01D92A63AB2073B
S11300C0E1F765D1C3C49CCF8FEF84BB85BB089592
S11300D0982F907F95BBAA9AAA9820E1829FC0018D
S11300E0112485BBAA9AAA9880E49FE10197F1F7AD
S11300F00895982F907F916095BBAA9AAA9820E1C1
S1130100829FC0011124816085BBAA9AAA9880E4C9
S11301109FE10197F1F70895662319F0613021F00A
S113012008958058D5CF08958054D2CF08950F9361
S11301301F93CF93DF93042F152FEEDFC02FD12F02
S11301408991D7DF88818111FBCFDF91CF911F91F6
S11301500F910895B9DF80ED97E020E931E0F901CE
S11301603197F1F70197D9F780E699E00197F1F714
S113017088E2AEDF80ED97E020E931E0F9013197C4
S1130180F1F70197D9F788E2A3DF80ED97E020E942
S113019031E0F9013197F1F70197D9F78CE098DF55
S11301A086E096DF82E094DF81E092DF81E090CF09
S11301B0089581E08DDF80E49CE90197F1F70895CB
S11301C08EEF82BB8AE18A95F1F780B390E0809547
S11301D09095807F99270097C9F421E030E061E091
S11301E070E04AE1CB01022E02C0880F991F0A94E5
S11301F0E2F7809582BB842F8A95F1F780B390E073
S113020080959095807F9927009721F022B32F70D5
S1130210822B08952F5F3F4F2430310519F780E07A
S113022090E008958FEF8ABB9FE091BB91E090939B
S1130230610082BB8FDFBDDF42E051E060E080E01F
S113024076DF42E151E061E080E071DF1BBA88E8CB
S113025093E120E931E0F9013197F1F70197D9F7FA
S1130260A8DF80EE8BBB88E893E120E931E0F90157
S11302703197F1F70197D9F742E051E060E080E06F
S113028056DF42E151E061E080E051DF1BBA88E8CB
S113029093E120E931E0F9013197F1F70197D9F7BA
S11302A088DF80EE8BBB88E893E120E931E0F90137
S11302B03197F1F70197D9F708951F920F920FB66E
S11302C00F9211242F933F938F939F938091A401B6
S11302D09091A50101969093A5018093A40180912A
S11302E00001909101018831910588F01092A501D7
S11302F01092A4011092A1011092A0011092A301E6
S11303001092A201109201011092000123C02091C9
S1130310A2013091A3012C33310548F0019690934A
S11303200101809300011092A3011092A201809117
S1130330A0019091A101CC9768F08091A2019091C5
S1130340A30101969093A3018093A2011092A101AD
S11303501092A0018091A4019091A501883E934040
S113036068F08091A0019091A10101969093A10160
S11303708093A0011092A5011092A4019F918F91E6
S11303803F912F910F900FBE0F901F90189586E00C
S113039082BF81E087BF84E083BF789443DF03E3B7
S11303A011E0CEE8D1E0EE24E394F12CCC2EDD2E46
S11303B06894882481F8912C6894AA24A2F8B12C1A
S11303C080919E0190919F01009799F5F9DE8B38F9
S11303D0910529F4F0929F01E0929E01F1CF42E24F
S11303E051E060E080E0A3DE8091A1018F938091D1
S11303F0A0018F938091A3018F938091A2018F9389
S1130400809101018F93809100018F931F930F932B
S1130410DF93CF9340D04C2D5D2D61E080E087DEEB
S11304208DB79EB70A960FB6F8949EBF0FBE8DBFC8
S1130430CDCF81309105D9F4C3DE8E31910529F4F5
S113044090929F0180929E01BBCF8E9729F4B09227
S11304509F01A0929E01B4CF4AE451E060E080E0A5
S113046066DE4BE551E061E080E061DEE5CF82309D
S1130470910539F4A5DE4CE651E060E080E057DEFA
S1130480F9CF049709F09CCF9BDE4DE751E060E083
S113049080E04DDEF9CF0F931F93CF93DF93CDB759
S11304A0DEB72E970FB6F894DEBF0FBECDBF0D8911
S11304B01E8986E08C831A8309838FEF9FE79E83CE
S11304C08D83AE01475E5F4F6F89788DCE010196B3
S11304D010D0EF81F885E00FF11F10822E960FB631
S11304E0F894DEBF0FBECDBFDF91CF911F910F9166
S11304F008952F923F924F925F926F927F928F92C4
S11305009F92AF92BF92CF92DF92EF92FF920F939E
S11305101F93CF93DF93CDB7DEB72B970FB6F89425
S1130520DEBF0FBECDBF6C017B018A01FC011782C7
S11305301682838181FFBFC1CE0101963C01F60181
S11305409381F70193FD859193FF81917F01882326
S113055009F4ADC1853239F493FD859193FF8191FE
S11305607F01853221F4B60190E0D6D1E8CF912CF9
S1130570212C312CFFE1F315D8F08B3279F038F4CB
S1130580803279F08332A1F4232D20611DC08D3295
S113059061F0803369F4232D216016C0832D8260BD
S11305A0382EE32DE4603E2E2AC0F32DF8601DC0E2
S11305B037FC2DC020ED280F2A3040F08E32B9F4DC
S11305C036FC75C1232D2064322E19C036FE06C0B8
S11305D08AE0989E200D1124922E11C0EAE02E9EEE
S11305E0200D1124222EF32DF0623F2E08C08C36EC
S11305F021F4832D8068382E02C0883641F4F70137
S113060093FD859193FF81917F018111B3CF982F41
S11306109F7D9554933028F40C5F1F4F9FE399837B
S11306200DC0833631F0833771F0833509F055C03E
S113063020C0F801808189830E5F1F4F8824839432
S1130640912C530112C02801F2E04F0E511CF80105
S1130650A080B18036FE03C0692D70E002C06FEF48
S11306607FEFC5014ED14C018201F32DFF773F2E60
S113067015C0280122E0420E511CF801A080B1806F
S113068036FE03C0692D70E002C06FEF7FEFC50135
S11306902DD14C01F32DF0683F2E820133FC19C09B
S11306A0822D90E088169906A0F4B60180E290E0CD
S11306B033D12A94F5CFF50137FC859137FE81912A
S11306C05F01B60190E028D121102A9421E0821A1A
S11306D091088114910479F7E1C0843611F08936C8
S11306E039F5F80137FE07C06081718182819381F9
S11306F00C5F1F4F08C060817181072E000C880BAE
S1130700990B0E5F1F4FF32DFF763F2E97FF09C005
S113071090958095709561957F4F8F4F9F4FF068AE
S11307203F2E2AE030E0A30133D1882E861844C03E
S1130730853731F4232D2F7EB22E2AE030E025C0F8
S1130740932D997FB92E8F36C1F018F4883579F03E
S1130750AEC0803719F0883721F0A9C0E92FE061D5
S1130760BE2EB4FE0DC0FB2DF460BF2E09C034FEB6
S11307700AC0292F2660B22E06C028E030E005C04A
S113078020E130E002C020E132E0F801B7FE07C00A
S113079060817181828193810C5F1F4F06C06081EB
S11307A0718180E090E00E5F1F4FA301F1D0882E8D
S11307B08618FB2DFF773F2E36FE0DC0232D2E7F8E
S11307C0A22E891458F434FE0BC032FC09C0832DC8
S11307D08E7EA82E05C0B82CA32C03C0B82C01C053
S11307E0B92CA4FE0FC0FE01E80DF11D80818033F9
S11307F021F49A2D997EA92E09C0A2FE06C0B394B5
S1130800B39404C08A2D867809F0B394A3FC10C075
S1130810A0FE06C0B21480F4280C922C9B180DC0C4
S1130820B21458F4B60180E290E076D0B394F8CFD5
S1130830B21418F42B1802C0982C212CA4FE0FC05B
S1130840B60180E390E068D0A2FE16C0A1FC03C00C
S113085088E790E002C088E590E0B6010CC08A2DDC
S1130860867851F0A1FE02C08BE201C080E2A7FCB1
S11308708DE2B60190E050D0891430F4B60180E3E3
S113088090E04AD09A94F8CF8A94F301E80DF11DD0
S11308908081B60190E040D08110F6CF222009F487
S11308A04ECEB60180E290E037D02A94F7CFF6011D
S11308B08681978102C08FEF9FEF2B960FB6F89435
S11308C0DEBF0FBECDBFDF91CF911F910F91FF907F
S11308D0EF90DF90CF90BF90AF909F908F907F90DC
S11308E06F905F904F903F902F900895FC0105907A
S11308F0615070400110D8F7809590958E0F9F1F1E
S11309000895FC016150704001900110D8F7809562
S113091090958E0F9F1F08950F931F93CF93DF938E
S1130920FB01238121FD03C08FEF9FEF2CC022FF29
S113093016C046815781248135814217530744F4F8
S1130940A081B1819D012F5F3F4F318320838C9320
S1130950268137812F5F3F4F3783268314C08B0155
S1130960EC01FB010084F185E02D0995892BE1F66A
S1130970D80116968D919C911797019617969C9382
S11309808E931697CE01DF91CF911F910F91089509
S1130990FA01AA27283051F1203181F1E8946F93AC
S11309A06E7F6E5F7F4F8F4F9F4FAF4FB1E03ED052
S11309B0B4E03CD0670F781F891F9A1FA11D680FF0
S11309C0791F8A1F911DA11D6A0F711D811D911D23
S11309D0A11D20D009F468943F912AE0269F112498
S11309E03019305D3193DEF6CF010895462F4770FC
S11309F0405D4193B3E00FD0C9F7F6CF462F4F7057
S1130A00405D4A3318F0495D31FD4052419302D0B4
S1130A10A9F7EACFB4E0A69597958795779567955A
S1130A20BA95C9F700976105710508959B01AC015A
S1130A300A2E06945795479537952795BA95C9F781
S1130A40620F731F841F951FA01D0895F894FFCF94
S1130A500800202020204D41524B455420202020C6
S1130A6020002020202053595354454D202020207D
S1130A7020002020202057454C434F4D4521212064
S1130A8020200020202020253032643A2530326492
S1130A903A253032642020202000313A2043616C12
S1130AA063756C6174696F6E202000323A20546F54
S1130AB074616C2053616C657320200043616C6326
S1130AC0756C617465204D6F6465202000546F74EB
S1110AD0616C2053616C65732020202020008F
S9030000FC
